:100000000C9435000C9454000C9489000C9452000C
:100010000C9452000C9452000C9452000C94520018
:100020000C9452000C9452000C9452000C94520008
:100030000C9452000C9452000C9452000C945200F8
:100040000C9452000C9452000C9452000C945200E8
:100050000C9452000C9452000C9452000C945200D8
:100060000C9452000C945200AA0011241FBECFEF32
:10007000D8E0DEBFCDBF21E0A0E0B1E001C01D921D
:10008000AA32B207E1F710E0C5E3D0E004C021973F
:10009000FE010E94CA01C433D107C9F70E94C20001
:1000A0000C94D0010C9400001F920F920FB60F9287
:1000B00011248F939F9389B190912801892371F026
:1000C00089B190912701892349F48091240190916D
:1000D00025010196909325018093240185B190918B
:1000E0002601892B85B985E38A95F1F7000095B142
:1000F000809126018095892385B985B19091290148
:10010000892785B99F918F910F900FBE0F901F90F7
:1001100018951F920F920FB60F9211248F939F93F1
:1001200089B190912801892371F489B190912701B7
:10013000892349F0809124019091250101979093A2
:100140002501809324019F918F910F900FBE0F90F6
:100150001F90189580E28093290184E08093280104
:1001600088E08093270180E180932601E99AE89A4C
:10017000E9E6F0E080818C60808380818360808309
:1001800078940895CF93DF93CDB7DEB7A0970FB6DD
:10019000F894DEBF0FBECDBF1092C50080E1809302
:1001A000C40088E18093C1008EE08093C200109269
:1001B00023011092220110922101109220019AB184
:1001C00080912801809589238AB98BB1909128016B
:1001D000892B8BB99AB180912701809589238AB99F
:1001E0008BB190912701892B8BB984B19091260115
:1001F000892B84B984B190912901892B84B99E01FE
:100200002F5F3F4F8AE0E82EF12C9DE2692E6901B5
:10021000C094D0944DE05AE0752E8FE99FE001978D
:10022000F1F700C000000091240110912501C801E0
:1002300017FF04C088279927801B910B4901B12C17
:10024000A12CF5013196B7010E94A201805DD40175
:100250008D934D01CB01181619068CF117FF05C0BF
:10026000E20FF31F6082F5013296E20FF31F108256
:10027000D901FD01E21BF30B8D918111FACF8F01A2
:10028000020F131FD901B601600F711FCD01821B30
:10029000930B86179707ACF0809122019091230170
:1002A000D901A80FB91FFC01E050FF4F5D91BC01BF
:1002B0006F5F7F4F552389F05193CB01F7CF5F01DB
:1002C000C0CF8D91F80192918F01BD0161507109EC
:1002D000FB019083F8018083D6CFFC01E050FF4FF3
:1002E000408360507F4FDB017C9202969093230104
:1002F000809322018091200190912101609122013F
:100300007091230186179707A4F45091C00055FF00
:10031000FCCF80509F4FFC0180818093C60080916C
:100320002001909121010196909321018093200159
:10033000E1CF10922301109222011092210110921C
:1003400020016BCF97FB072E16F4009407D077FDA2
:1003500009D00E94B60107FC05D03EF49095819526
:100360009F4F0895709561957F4F0895AA1BBB1B01
:1003700051E107C0AA1FBB1FA617B70710F0A61BA5
:10038000B70B881F991F5A95A9F780959095BC01C6
:10039000CD010895EE0FFF1F0590F491E02D099413
:0403A000F894FFCFFF
:00000001FF
